{
  "contractName": "PowerGeneration",
  "abi": [
    {
      "inputs": [],
      "stateMutability": "nonpayable",
      "type": "constructor"
    },
    {
      "inputs": [
        {
          "internalType": "uint256",
          "name": "",
          "type": "uint256"
        }
      ],
      "name": "buyers",
      "outputs": [
        {
          "internalType": "uint256",
          "name": "",
          "type": "uint256"
        }
      ],
      "stateMutability": "view",
      "type": "function"
    },
    {
      "inputs": [
        {
          "internalType": "uint256",
          "name": "",
          "type": "uint256"
        }
      ],
      "name": "distributionVector",
      "outputs": [
        {
          "internalType": "uint256",
          "name": "dist",
          "type": "uint256"
        },
        {
          "internalType": "uint256",
          "name": "h1",
          "type": "uint256"
        },
        {
          "internalType": "uint256",
          "name": "h2",
          "type": "uint256"
        }
      ],
      "stateMutability": "view",
      "type": "function"
    },
    {
      "inputs": [
        {
          "internalType": "uint256",
          "name": "",
          "type": "uint256"
        }
      ],
      "name": "finalPairs",
      "outputs": [
        {
          "internalType": "uint256",
          "name": "dist",
          "type": "uint256"
        },
        {
          "internalType": "uint256",
          "name": "energyExchange",
          "type": "uint256"
        },
        {
          "internalType": "uint256",
          "name": "byr",
          "type": "uint256"
        },
        {
          "internalType": "uint256",
          "name": "sllr",
          "type": "uint256"
        }
      ],
      "stateMutability": "view",
      "type": "function"
    },
    {
      "inputs": [
        {
          "internalType": "uint256",
          "name": "",
          "type": "uint256"
        }
      ],
      "name": "sellers",
      "outputs": [
        {
          "internalType": "uint256",
          "name": "",
          "type": "uint256"
        }
      ],
      "stateMutability": "view",
      "type": "function"
    },
    {
      "inputs": [
        {
          "internalType": "uint256",
          "name": "",
          "type": "uint256"
        }
      ],
      "name": "user",
      "outputs": [
        {
          "internalType": "uint256",
          "name": "userID",
          "type": "uint256"
        },
        {
          "internalType": "string",
          "name": "name",
          "type": "string"
        },
        {
          "internalType": "address payable",
          "name": "userAddress",
          "type": "address"
        },
        {
          "internalType": "uint256",
          "name": "powerConsumption",
          "type": "uint256"
        },
        {
          "internalType": "uint256",
          "name": "powerProduction",
          "type": "uint256"
        },
        {
          "internalType": "bool",
          "name": "isProducer",
          "type": "bool"
        },
        {
          "internalType": "bool",
          "name": "isConsumer",
          "type": "bool"
        }
      ],
      "stateMutability": "view",
      "type": "function"
    },
    {
      "inputs": [
        {
          "internalType": "address",
          "name": "",
          "type": "address"
        }
      ],
      "name": "userID",
      "outputs": [
        {
          "internalType": "uint256",
          "name": "",
          "type": "uint256"
        }
      ],
      "stateMutability": "view",
      "type": "function"
    },
    {
      "inputs": [
        {
          "components": [
            {
              "internalType": "uint256",
              "name": "dist",
              "type": "uint256"
            },
            {
              "internalType": "uint256",
              "name": "h1",
              "type": "uint256"
            },
            {
              "internalType": "uint256",
              "name": "h2",
              "type": "uint256"
            }
          ],
          "internalType": "struct PowerGeneration.DistancePair[]",
          "name": "arr",
          "type": "tuple[]"
        },
        {
          "internalType": "int256",
          "name": "left",
          "type": "int256"
        },
        {
          "internalType": "int256",
          "name": "right",
          "type": "int256"
        }
      ],
      "name": "quickSort",
      "outputs": [],
      "stateMutability": "pure",
      "type": "function"
    },
    {
      "inputs": [
        {
          "components": [
            {
              "internalType": "uint256",
              "name": "dist",
              "type": "uint256"
            },
            {
              "internalType": "uint256",
              "name": "h1",
              "type": "uint256"
            },
            {
              "internalType": "uint256",
              "name": "h2",
              "type": "uint256"
            }
          ],
          "internalType": "struct PowerGeneration.DistancePair[]",
          "name": "data",
          "type": "tuple[]"
        }
      ],
      "name": "sort",
      "outputs": [
        {
          "components": [
            {
              "internalType": "uint256",
              "name": "dist",
              "type": "uint256"
            },
            {
              "internalType": "uint256",
              "name": "h1",
              "type": "uint256"
            },
            {
              "internalType": "uint256",
              "name": "h2",
              "type": "uint256"
            }
          ],
          "internalType": "struct PowerGeneration.DistancePair[]",
          "name": "",
          "type": "tuple[]"
        }
      ],
      "stateMutability": "pure",
      "type": "function"
    },
    {
      "inputs": [
        {
          "internalType": "uint256",
          "name": "id",
          "type": "uint256"
        },
        {
          "internalType": "address payable",
          "name": "addr",
          "type": "address"
        },
        {
          "internalType": "string",
          "name": "_name",
          "type": "string"
        }
      ],
      "name": "registerUser",
      "outputs": [],
      "stateMutability": "nonpayable",
      "type": "function"
    },
    {
      "inputs": [
        {
          "internalType": "uint256",
          "name": "_value",
          "type": "uint256"
        }
      ],
      "name": "generatePower",
      "outputs": [],
      "stateMutability": "nonpayable",
      "type": "function"
    },
    {
      "inputs": [
        {
          "internalType": "uint256",
          "name": "_value",
          "type": "uint256"
        }
      ],
      "name": "consumePower",
      "outputs": [],
      "stateMutability": "nonpayable",
      "type": "function"
    },
    {
      "inputs": [],
      "name": "calculateBestRoutes",
      "outputs": [
        {
          "components": [
            {
              "internalType": "uint256",
              "name": "dist",
              "type": "uint256"
            },
            {
              "internalType": "uint256",
              "name": "energyExchange",
              "type": "uint256"
            },
            {
              "internalType": "uint256",
              "name": "byr",
              "type": "uint256"
            },
            {
              "internalType": "uint256",
              "name": "sllr",
              "type": "uint256"
            }
          ],
          "internalType": "struct PowerGeneration.Trade[]",
          "name": "",
          "type": "tuple[]"
        }
      ],
      "stateMutability": "nonpayable",
      "type": "function"
    }
  ],
  "bytecode": "0x608060405260006001556040518060e001604052806040518060e00160405280600060ff168152602001600260ff168152602001600360ff168152602001600a60ff168152602001600b60ff168152602001601860ff168152602001600560ff1681525081526020016040518060e00160405280600260ff168152602001600060ff168152602001600560ff168152602001600b60ff168152602001600a60ff168152602001600560ff168152602001600460ff1681525081526020016040518060e00160405280600360ff168152602001600560ff168152602001600060ff168152602001600a60ff168152602001600b60ff168152602001601960ff168152602001601860ff1681525081526020016040518060e00160405280600a60ff168152602001600b60ff168152602001600a60ff168152602001600060ff168152602001600260ff168152602001600560ff168152602001600460ff1681525081526020016040518060e00160405280600b60ff168152602001600a60ff168152602001600b60ff168152602001600260ff168152602001600060ff168152602001600260ff168152602001600360ff1681525081526020016040518060e00160405280601860ff168152602001600560ff168152602001601960ff168152602001600560ff168152602001600260ff168152602001600060ff168152602001600460ff1681525081526020016040518060e00160405280600560ff168152602001600460ff168152602001601860ff168152602001600460ff168152602001600360ff168152602001600460ff168152602001600060ff16815250815250600290600762000270929190620002c5565b503480156200027e57600080fd5b50336000806101000a81548173ffffffffffffffffffffffffffffffffffffffff021916908373ffffffffffffffffffffffffffffffffffffffff160217905550620003e8565b82805482825590600052602060002090810192821562000314579160200282015b8281111562000313578251829060076200030292919062000327565b5091602001919060010190620002e6565b5b5090506200032391906200037e565b5090565b8280548282559060005260206000209081019282156200036b579160200282015b828111156200036a578251829060ff1690559160200191906001019062000348565b5b5090506200037a9190620003a6565b5090565b5b80821115620003a25760008181620003989190620003c5565b506001016200037f565b5090565b5b80821115620003c1576000816000905550600101620003a7565b5090565b5080546000825590600052602060002090810190620003e59190620003a6565b50565b61209880620003f86000396000f3fe608060405234801561001057600080fd5b50600436106100b45760003560e01c8063cb775d5a11610071578063cb775d5a146101bc578063cee26ed5146101d8578063d5e46ea314610208578063e2b3021d14610224578063eda7794e14610242578063f2aa821814610272576100b4565b80631abc9588146100b95780632cb7303a146100eb578063553275be1461011e5780638fad19ad14610154578063950887d714610184578063b7c0f59a146101a0575b600080fd5b6100d360048036038101906100ce9190611676565b6102a2565b6040516100e2939291906119d3565b60405180910390f35b61010560048036038101906101009190611676565b6102dc565b6040516101159493929190611a0a565b60405180910390f35b61013860048036038101906101339190611676565b61031c565b60405161014b979695949392919061195d565b60405180910390f35b61016e600480360381019061016991906115ce565b610420565b60405161017b91906118fe565b60405180910390f35b61019e60048036038101906101999190611676565b61044a565b005b6101ba60048036038101906101b5919061169f565b6105b5565b005b6101d660048036038101906101d19190611676565b61073f565b005b6101f260048036038101906101ed9190611676565b6108aa565b6040516101ff9190611942565b60405180910390f35b610222600480360381019061021d919061160f565b6108ce565b005b61022c610b7e565b6040516102399190611920565b60405180910390f35b61025c600480360381019061025791906115a5565b611314565b6040516102699190611942565b60405180910390f35b61028c60048036038101906102879190611676565b61132c565b6040516102999190611942565b60405180910390f35b600981815481106102b257600080fd5b90600052602060002090600302016000915090508060000154908060010154908060020154905083565b600a81815481106102ec57600080fd5b90600052602060002090600402016000915090508060000154908060010154908060020154908060030154905084565b600360205280600052604060002060009150905080600001549080600101805461034590611e75565b80601f016020809104026020016040519081016040528092919081815260200182805461037190611e75565b80156103be5780601f10610393576101008083540402835291602001916103be565b820191906000526020600020905b8154815290600101906020018083116103a157829003601f168201915b5050505050908060020160009054906101000a900473ffffffffffffffffffffffffffffffffffffffff16908060030154908060040154908060050160009054906101000a900460ff16908060050160019054906101000a900460ff16905087565b60606000825190506104418360006001865161043c9190611d52565b6108ce565b82915050919050565b6000600460003373ffffffffffffffffffffffffffffffffffffffff1673ffffffffffffffffffffffffffffffffffffffff168152602001908152602001600020549050816003600083815260200190815260200160002060040160008282546104b49190611bfe565b925050819055506003600082815260200190815260200160002060030154600360008381526020019081526020016000206004015411156105525760016003600083815260200190815260200160002060050160006101000a81548160ff02191690831515021790555060006003600083815260200190815260200160002060050160016101000a81548160ff0219169083151502179055506105b1565b60006003600083815260200190815260200160002060050160006101000a81548160ff02191690831515021790555060016003600083815260200190815260200160002060050160016101000a81548160ff0219169083151502179055505b5050565b6040518060e001604052808481526020018281526020018373ffffffffffffffffffffffffffffffffffffffff1681526020016000815260200160008152602001600015158152602001600015158152506003600085815260200190815260200160002060008201518160000155602082015181600101908051906020019061063f929190611350565b5060408201518160020160006101000a81548173ffffffffffffffffffffffffffffffffffffffff021916908373ffffffffffffffffffffffffffffffffffffffff160217905550606082015181600301556080820151816004015560a08201518160050160006101000a81548160ff02191690831515021790555060c08201518160050160016101000a81548160ff02191690831515021790555090505082600460008473ffffffffffffffffffffffffffffffffffffffff1673ffffffffffffffffffffffffffffffffffffffff168152602001908152602001600020819055506001600081548092919061073590611ef0565b9190505550505050565b6000600460003373ffffffffffffffffffffffffffffffffffffffff1673ffffffffffffffffffffffffffffffffffffffff168152602001908152602001600020549050816003600083815260200190815260200160002060030160008282546107a99190611bfe565b925050819055506003600082815260200190815260200160002060030154600360008381526020019081526020016000206004015411156108475760016003600083815260200190815260200160002060050160006101000a81548160ff02191690831515021790555060006003600083815260200190815260200160002060050160016101000a81548160ff0219169083151502179055506108a6565b60006003600083815260200190815260200160002060050160006101000a81548160ff02191690831515021790555060016003600083815260200190815260200160002060050160016101000a81548160ff0219169083151502179055505b5050565b600581815481106108ba57600080fd5b906000526020600020016000915090505481565b60008290506000829050808214156108e7575050610b79565b600085600286866108f89190611cbe565b6109029190611c54565b8661090d9190611b6a565b81518110610944577f4e487b7100000000000000000000000000000000000000000000000000000000600052603260045260246000fd5b60200260200101516000015190505b818313610b4d575b80868481518110610995577f4e487b7100000000000000000000000000000000000000000000000000000000600052603260045260246000fd5b60200260200101516000015110156109ba5782806109b290611ea7565b93505061095b565b5b8582815181106109f4577f4e487b7100000000000000000000000000000000000000000000000000000000600052603260045260246000fd5b602002602001015160000151811015610a1a578180610a1290611e2c565b9250506109bb565b818313610b4857858281518110610a5a577f4e487b7100000000000000000000000000000000000000000000000000000000600052603260045260246000fd5b6020026020010151868481518110610a9b577f4e487b7100000000000000000000000000000000000000000000000000000000600052603260045260246000fd5b6020026020010151878581518110610adc577f4e487b7100000000000000000000000000000000000000000000000000000000600052603260045260246000fd5b60200260200101888581518110610b1c577f4e487b7100000000000000000000000000000000000000000000000000000000600052603260045260246000fd5b6020026020010182905282905250508280610b3690611ea7565b9350508180610b4490611e2c565b9250505b610953565b81851215610b6157610b608686846108ce565b5b83831215610b7557610b748684866108ce565b5b5050505b505050565b606060005b600154811015610cc657600115156003600083815260200190815260200160002060050160009054906101000a900460ff1615151415610c3a57600581908060018154018082558091505060019003906000526020600020016000909190919091505560036000828152602001908152602001600020600301546003600083815260200190815260200160002060040154610c1e9190611d52565b6007600083815260200190815260200160002081905550610cb3565b600681908060018154018082558091505060019003906000526020600020016000909190919091505560036000828152602001908152602001600020600401546003600083815260200190815260200160002060030154610c9b9190611d52565b60086000838152602001908152602001600020819055505b8080610cbe90611ef0565b915050610b83565b50600060058054905090506000600680549050905060005b82811015610e9a5760005b82811015610e8857600060058381548110610d2d577f4e487b7100000000000000000000000000000000000000000000000000000000600052603260045260246000fd5b90600052602060002001549050600060068381548110610d76577f4e487b7100000000000000000000000000000000000000000000000000000000600052603260045260246000fd5b906000526020600020015490506000604051806060016040528060028581548110610dca577f4e487b7100000000000000000000000000000000000000000000000000000000600052603260045260246000fd5b906000526020600020018481548110610e0c577f4e487b7100000000000000000000000000000000000000000000000000000000600052603260045260246000fd5b906000526020600020015481526020018481526020018381525090506009819080600181540180825580915050600190039060005260206000209060030201600090919091909150600082015181600001556020820151816001015560408201518160020155505050505080610e8190611ea7565b9050610ce9565b5080610e9390611ea7565b9050610cde565b506000610f1b6009805480602002602001604051908101604052809291908181526020016000905b82821015610f125783829060005260206000209060030201604051806060016040529081600082015481526020016001820154815260200160028201548152505081526020019060010190610ec2565b50505050610420565b905060005b60098054905081101561128b576000828281518110610f68577f4e487b7100000000000000000000000000000000000000000000000000000000600052603260045260246000fd5b60200260200101516000015190506000838381518110610fb1577f4e487b7100000000000000000000000000000000000000000000000000000000600052603260045260246000fd5b60200260200101516020015190506000848481518110610ffa577f4e487b7100000000000000000000000000000000000000000000000000000000600052603260045260246000fd5b602002602001015160400151905060006008600083815260200190815260200160002054148061103d575060006007600084815260200190815260200160002054145b1561104a5750505061127a565b60076000838152602001908152602001600020546008600083815260200190815260200160002054111561116257600060405180608001604052808581526020016007600086815260200190815260200160002054815260200183815260200184815250905060076000848152602001908152602001600020546008600084815260200190815260200160002060008282546110e69190611d52565b9250508190555060006007600085815260200190815260200160002081905550600a81908060018154018082558091505060019003906000526020600020906004020160009091909190915060008201518160000155602082015181600101556040820151816002015560608201518160030155505050611276565b600760008381526020019081526020016000205460086000838152602001908152602001600020541161127557600060405180608001604052808581526020016008600085815260200190815260200160002054815260200183815260200184815250905060086000838152602001908152602001600020546007600085815260200190815260200160002060008282546111fd9190611d52565b9250508190555060006008600084815260200190815260200160002081905550600a819080600181540180825580915050600190039060005260206000209060040201600090919091909150600082015181600001556020820151816001015560408201518160020155606082015181600301555050505b5b5050505b8061128490611ea7565b9050610f20565b50600a805480602002602001604051908101604052809291908181526020016000905b828210156113085783829060005260206000209060040201604051806080016040529081600082015481526020016001820154815260200160028201548152602001600382015481525050815260200190600101906112ae565b50505050935050505090565b60046020528060005260406000206000915090505481565b6006818154811061133c57600080fd5b906000526020600020016000915090505481565b82805461135c90611e75565b90600052602060002090601f01602090048101928261137e57600085556113c5565b82601f1061139757805160ff19168380011785556113c5565b828001600101855582156113c5579182015b828111156113c45782518255916020019190600101906113a9565b5b5090506113d291906113d6565b5090565b5b808211156113ef5760008160009055506001016113d7565b5090565b600061140661140184611a80565b611a4f565b9050808382526020820190508285606086028201111561142557600080fd5b60005b85811015611455578161143b8882611530565b845260208401935060608301925050600181019050611428565b5050509392505050565b600061147261146d84611aac565b611a4f565b90508281526020810184848401111561148a57600080fd5b611495848285611dea565b509392505050565b6000813590506114ac81612006565b92915050565b6000813590506114c18161201d565b92915050565b600082601f8301126114d857600080fd5b81356114e88482602086016113f3565b91505092915050565b60008135905061150081612034565b92915050565b600082601f83011261151757600080fd5b813561152784826020860161145f565b91505092915050565b60006060828403121561154257600080fd5b61154c6060611a4f565b9050600061155c84828501611590565b600083015250602061157084828501611590565b602083015250604061158484828501611590565b60408301525092915050565b60008135905061159f8161204b565b92915050565b6000602082840312156115b757600080fd5b60006115c58482850161149d565b91505092915050565b6000602082840312156115e057600080fd5b600082013567ffffffffffffffff8111156115fa57600080fd5b611606848285016114c7565b91505092915050565b60008060006060848603121561162457600080fd5b600084013567ffffffffffffffff81111561163e57600080fd5b61164a868287016114c7565b935050602061165b868287016114f1565b925050604061166c868287016114f1565b9150509250925092565b60006020828403121561168857600080fd5b600061169684828501611590565b91505092915050565b6000806000606084860312156116b457600080fd5b60006116c286828701611590565b93505060206116d3868287016114b2565b925050604084013567ffffffffffffffff8111156116f057600080fd5b6116fc86828701611506565b9150509250925092565b60006117128383611849565b60608301905092915050565b600061172a838361188b565b60808301905092915050565b61173f81611d98565b82525050565b600061175082611afc565b61175a8185611b37565b935061176583611adc565b8060005b8381101561179657815161177d8882611706565b975061178883611b1d565b925050600181019050611769565b5085935050505092915050565b60006117ae82611b07565b6117b88185611b48565b93506117c383611aec565b8060005b838110156117f45781516117db888261171e565b97506117e683611b2a565b9250506001810190506117c7565b5085935050505092915050565b61180a81611daa565b82525050565b600061181b82611b12565b6118258185611b59565b9350611835818560208601611df9565b61183e81611ff5565b840191505092915050565b60608201600082015161185f60008501826118e0565b50602082015161187260208501826118e0565b50604082015161188560408501826118e0565b50505050565b6080820160008201516118a160008501826118e0565b5060208201516118b460208501826118e0565b5060408201516118c760408501826118e0565b5060608201516118da60608501826118e0565b50505050565b6118e981611de0565b82525050565b6118f881611de0565b82525050565b600060208201905081810360008301526119188184611745565b905092915050565b6000602082019050818103600083015261193a81846117a3565b905092915050565b600060208201905061195760008301846118ef565b92915050565b600060e082019050611972600083018a6118ef565b81810360208301526119848189611810565b90506119936040830188611736565b6119a060608301876118ef565b6119ad60808301866118ef565b6119ba60a0830185611801565b6119c760c0830184611801565b98975050505050505050565b60006060820190506119e860008301866118ef565b6119f560208301856118ef565b611a0260408301846118ef565b949350505050565b6000608082019050611a1f60008301876118ef565b611a2c60208301866118ef565b611a3960408301856118ef565b611a4660608301846118ef565b95945050505050565b6000604051905081810181811067ffffffffffffffff82111715611a7657611a75611fc6565b5b8060405250919050565b600067ffffffffffffffff821115611a9b57611a9a611fc6565b5b602082029050602081019050919050565b600067ffffffffffffffff821115611ac757611ac6611fc6565b5b601f19601f8301169050602081019050919050565b6000819050602082019050919050565b6000819050602082019050919050565b600081519050919050565b600081519050919050565b600081519050919050565b6000602082019050919050565b6000602082019050919050565b600082825260208201905092915050565b600082825260208201905092915050565b600082825260208201905092915050565b6000611b7582611db6565b9150611b8083611db6565b9250817f7fffffffffffffffffffffffffffffffffffffffffffffffffffffffffffffff03831360008312151615611bbb57611bba611f39565b5b817f8000000000000000000000000000000000000000000000000000000000000000038312600083121615611bf357611bf2611f39565b5b828201905092915050565b6000611c0982611de0565b9150611c1483611de0565b9250827fffffffffffffffffffffffffffffffffffffffffffffffffffffffffffffffff03821115611c4957611c48611f39565b5b828201905092915050565b6000611c5f82611db6565b9150611c6a83611db6565b925082611c7a57611c79611f68565b5b600160000383147f800000000000000000000000000000000000000000000000000000000000000083141615611cb357611cb2611f39565b5b828205905092915050565b6000611cc982611db6565b9150611cd483611db6565b9250827f800000000000000000000000000000000000000000000000000000000000000001821260008412151615611d0f57611d0e611f39565b5b827f7fffffffffffffffffffffffffffffffffffffffffffffffffffffffffffffff018213600084121615611d4757611d46611f39565b5b828203905092915050565b6000611d5d82611de0565b9150611d6883611de0565b925082821015611d7b57611d7a611f39565b5b828203905092915050565b6000611d9182611dc0565b9050919050565b6000611da382611dc0565b9050919050565b60008115159050919050565b6000819050919050565b600073ffffffffffffffffffffffffffffffffffffffff82169050919050565b6000819050919050565b82818337600083830152505050565b60005b83811015611e17578082015181840152602081019050611dfc565b83811115611e26576000848401525b50505050565b6000611e3782611db6565b91507f8000000000000000000000000000000000000000000000000000000000000000821415611e6a57611e69611f39565b5b600182039050919050565b60006002820490506001821680611e8d57607f821691505b60208210811415611ea157611ea0611f97565b5b50919050565b6000611eb282611db6565b91507f7fffffffffffffffffffffffffffffffffffffffffffffffffffffffffffffff821415611ee557611ee4611f39565b5b600182019050919050565b6000611efb82611de0565b91507fffffffffffffffffffffffffffffffffffffffffffffffffffffffffffffffff821415611f2e57611f2d611f39565b5b600182019050919050565b7f4e487b7100000000000000000000000000000000000000000000000000000000600052601160045260246000fd5b7f4e487b7100000000000000000000000000000000000000000000000000000000600052601260045260246000fd5b7f4e487b7100000000000000000000000000000000000000000000000000000000600052602260045260246000fd5b7f4e487b7100000000000000000000000000000000000000000000000000000000600052604160045260246000fd5b6000601f19601f8301169050919050565b61200f81611d86565b811461201a57600080fd5b50565b61202681611d98565b811461203157600080fd5b50565b61203d81611db6565b811461204857600080fd5b50565b61205481611de0565b811461205f57600080fd5b5056fea2646970667358221220272a8f5c7217800fa7401414f0d7ced69294d8589750df7b0e3f67209d850c5c64736f6c63430008000033",
  "immutableReferences": {},
  "source": "//SPDX-License-Identifier: UNLICENSED\r\npragma solidity ^0.8.0;\r\n\r\ncontract PowerGeneration{\r\n    address private administrator;\r\n    uint256 numberOfUsers=0; \r\n    struct User {\r\n        uint256 userID;\r\n        string name;\r\n        address payable userAddress;\r\n        uint256 powerConsumption;\r\n        uint256 powerProduction;\r\n        bool isProducer;\r\n        bool isConsumer;\r\n    }\r\n\r\n    struct DistancePair{\r\n        uint256 dist;\r\n        uint h1;\r\n        uint h2;\r\n    }\r\n\r\n    struct Trade{\r\n        uint256 dist;\r\n        uint256 energyExchange;\r\n        uint byr;\r\n        uint sllr;\r\n    }\r\n\r\n   \r\n    uint256[][] distance=[[0,2,3,10,11,24,5], \r\n                          [2,0,5,11,10,5,4],\r\n                          [3,5,0,10,11,25,24],\r\n                          [10,11,10,0,2,5,4],\r\n                          [11,10,11,2,0,2,3],\r\n                          [24,5,25,5,2,0,4],\r\n                          [5,4,24,4,3,4,0]];\r\n   \r\n    mapping(uint256 => User) public user;\r\n    mapping(address => uint256) public userID;\r\n    uint256[] public sellers;\r\n    uint256[] public buyers;\r\n     mapping (uint256 => uint256) netProduction;\r\n     mapping (uint256 => uint256) netConsumption;\r\n   \r\n    constructor() {\r\n        administrator = msg.sender;\r\n    }\r\n\r\n    function quickSort(DistancePair[] memory arr, int256 left, int256 right) pure public{\r\n        int256 i = left;\r\n        int256 j = right;\r\n        if (i == j) return;\r\n        uint256 pivot = arr[uint256(left + (right - left) / 2)].dist;\r\n        while (i <= j) {\r\n            while (arr[uint256(i)].dist < pivot) i++;\r\n            while (pivot < arr[uint256(j)].dist) j--;\r\n            if (i <= j) {\r\n                (arr[uint256(i)], arr[uint256(j)]) = (arr[uint256(j)], arr[uint256(i)]);\r\n                i++;\r\n                j--;\r\n            }\r\n        }\r\n        if (left < j)\r\n            quickSort(arr, left, j);\r\n        if (i < right)\r\n            quickSort(arr, i, right);\r\n    }\r\n\r\n    function sort(DistancePair[] memory data) public pure returns (DistancePair[] memory) {\r\n        uint256 datasize=data.length;\r\n        quickSort(data, int256(0), int256(data.length - 1));\r\n        return data;\r\n    }\r\n\r\n    function registerUser(uint256 id, address payable addr, string memory _name) public {\r\n        user[id] = User({\r\n            userID: id,\r\n            userAddress: addr,\r\n            name: _name,\r\n            powerConsumption: 0,\r\n            powerProduction: 0,\r\n            isProducer: false,\r\n            isConsumer: false\r\n        });\r\n        userID[addr]=id;\r\n        numberOfUsers++;\r\n    }\r\n\r\n    function generatePower(uint256 _value) public {\r\n        uint256 id = userID[msg.sender];\r\n        user[id].powerProduction += _value;\r\n        if(user[id].powerProduction > user[id].powerConsumption){\r\n            user[id].isProducer = true;\r\n            user[id].isConsumer = false;\r\n        }\r\n        else{\r\n            user[id].isProducer = false;\r\n            user[id].isConsumer = true;\r\n        }\r\n    }\r\n\r\n    function consumePower(uint256 _value) public{\r\n        uint256 id = userID[msg.sender];\r\n        user[id].powerConsumption += _value;\r\n        if(user[id].powerProduction > user[id].powerConsumption){\r\n            user[id].isProducer = true;\r\n            user[id].isConsumer = false;\r\n        }\r\n        else{\r\n            user[id].isProducer = false;\r\n            user[id].isConsumer = true;\r\n        }\r\n    }\r\n    DistancePair[] public distributionVector;//{dist,{buyers,seller}}\r\n    Trade[] public finalPairs;//{energy exchanged,{buyers,seller}}\r\n\r\n    function calculateBestRoutes() public returns (Trade[] memory){\r\n        for(uint i=0;i<numberOfUsers;i++){\r\n            if(user[i].isProducer==true){\r\n                sellers.push(i);\r\n                netProduction[i]=user[i].powerProduction - user[i].powerConsumption;\r\n            }\r\n            else{\r\n                buyers.push(i);\r\n                netConsumption[i]=user[i].powerConsumption - user[i].powerProduction;\r\n            }\r\n        }\r\n\r\n        uint256 noOfSellers=sellers.length;\r\n        uint256 noOfBuyers=buyers.length;\r\n\r\n        for(int i=0;uint256(i)< noOfSellers;++i){\r\n            for(int j=0;uint256(j)<noOfBuyers;++j){   \r\n                uint256 indxh1=sellers[uint256(i)];\r\n                uint256 indxh2=buyers[uint256(j)];\r\n                DistancePair memory temp= DistancePair({\r\n                    h1: indxh1,\r\n                    h2: indxh2,\r\n                    dist: distance[indxh1][indxh2]\r\n                });\r\n            \r\n                distributionVector.push(temp);\r\n            }\r\n        }\r\n\r\n        DistancePair[] memory dv=sort(distributionVector);\r\n\r\n        for(int i=0;uint256(i)<distributionVector.length;++i){\r\n            //now for each check how much can we take  of selll and push in a array\r\n            uint256 currDist=dv[uint256(i)].dist;\r\n            uint256 currSellerIndx=dv[uint256(i)].h1;//index of seller here\r\n            uint256 currBuyerIndx=dv[uint256(i)].h2;//index of buyer here\r\n            if(netConsumption[currBuyerIndx]==0  || netProduction[currSellerIndx]==0) \r\n                continue;\r\n\r\n            if(netConsumption[currBuyerIndx]>netProduction[currSellerIndx]){\r\n                Trade memory temp= Trade({\r\n                    dist: currDist,\r\n                    energyExchange: netProduction[currSellerIndx],\r\n                    byr: currBuyerIndx,\r\n                    sllr: currSellerIndx\r\n                });\r\n                netConsumption[currBuyerIndx]-=netProduction[currSellerIndx];\r\n                netProduction[currSellerIndx]=0;\r\n                finalPairs.push(temp);\r\n            }else if(netConsumption[currBuyerIndx]<=netProduction[currSellerIndx]){\r\n                Trade memory temp= Trade({\r\n                    dist: currDist,\r\n                    energyExchange: netConsumption[currBuyerIndx],\r\n                    byr: currBuyerIndx,\r\n                    sllr: currSellerIndx\r\n                });\r\n                netProduction[currSellerIndx]-=netConsumption[currBuyerIndx];\r\n                netConsumption[currBuyerIndx]=0;\r\n                finalPairs.push(temp);\r\n            }\r\n        }\r\n        return finalPairs;\r\n    }\r\n}",
  "sourcePath": "C:\\Users\\Sampada\\OneDrive\\Desktop\\blockchain\\Energy Trading\\contracts\\PowerGeneration.sol",
  "compiler": {
    "name": "solc",
    "version": "0.8.0+commit.c7dfd78e.Emscripten.clang"
  },
  "schemaVersion": "3.4.13",
  "updatedAt": "2023-05-05T13:47:37.501Z",
  "devdoc": {
    "kind": "dev",
    "methods": {},
    "version": 1
  },
  "userdoc": {
    "kind": "user",
    "methods": {},
    "version": 1
  }
}